:02000002D0002C
:1040000000400D0064540D00000006000C00050186
:084010000401BD0B00000000DB
:0440180018520D002D
:10401C0009480A49884208B505D0094A824202D0AB
:10402C00121A01F0B1F80748074A0021121A01F0E0
:10403C00B9F8014808BD00BFBCE50320D4530D00FE
:10404C0024E6032024E60320F0E7032070B5074E96
:10405C00074C00F093FFA41BA4080025A54200D137
:10406C0070BD56F8043B98470135F7E7A8530D008F
:10407C00CC530D0000F03CB808B500F067F8BDE873
:10408C00084000F03DBF00F0A9BA00F0AFBA0078CC
:10409C00B0FA80F0400970470123037070470000AC
:1040AC0010B1024B01221A70704700BF34E6032096
:1040BC0010B50446006808B100F098FA204610BD0F
:1040CC0010B5094C2378BFF35B8FDB070AD420466D
:1040DC00FFF7DDFF30B10548012100F0D1FC20468F
:1040EC00FFF7DAFF014810BD28E603202CE6032079
:1040FC0008B50121082000F0B1FF0021052000F0D7
:10410C00ADFFFFF7DDFF0622012100F0C3FCFFF736
:10411C00D7FF0C4A012100F00FFDFFF7D1FF012161
:10412C0000F0CEFCFFF7CCFF002100F0DCFCFFF729
:10413C00C7FF054900F045FDBDE8084001210820F6
:10414C0000F09DBF40420F00AD400D001FB51D4B50
:10415C001A78A2B300241C70FFF7B2FF012300945D
:10416C0002AA03A900F01AFD9DF80830312B03D1E7
:10417C000121082000F083FF9DF80830302B03D17B
:10418C000021082000F07BFF052000F091FF014684
:10419C0000B10121082000F072FF9DF808303F2B80
:1041AC000DD1052000F084FF8DF80C00FFF788FF7F
:1041BC000023009302AA012303A900F0EFFC04B032
:1041CC0010BD00BF34E6032038B50A4C0A4BA3607F
:1041DC00002503202560A580A57100F073F907491F
:1041EC00074A204600F0B8FF29460120BDE83840B8
:1041FC0000F070B938E603200000FFFFBD400D0051
:10420C0024E6032008B5024B1B685B6C019308BDC8
:10421C004802030008B5024B1B689B6C019308BD58
:10422C004802030008B5024B1B685B68019308BD8C
:10423C001802030008B5024B1B685B69019308BDAB
:10424C001802030008B5024B1B689B68019308BD5C
:10425C002C02030008B5024B1B68DB68019308BDF8
:10426C002C02030008B5024B1B681B69019308BDA7
:10427C002C02030008B5024B1B685B69019308BD57
:10428C002C02030008B5024B1B681B6A019308BD86
:10429C002802030008B5024B1B685B6A019308BD3A
:1042AC002802030008B5024B1B689B6A019308BDEA
:1042BC002802030008B5024B1B68DB6A019308BD9A
:1042CC002802030008B5024B1B681B6B019308BD49
:1042DC002802030008B5024B1B685B6B019308BDF9
:1042EC002802030008B5024B1B681B6C019308BD28
:1042FC002802030008B5024B1B685B69019308BDDB
:10430C006402030008B5024B1B689B68019308BD4F
:10431C006802030008B5024B1B68DB68019308BDFB
:10432C006802030008B5024B1B689B68019308BD2B
:10433C003002030008B5024B1B68DB68019308BD13
:10434C003002030008B5024B1B681B69019308BDC2
:10435C003002030008B5024B1B68DB69019308BDF2
:10436C003002030008B5024B1B681B6A019308BDA1
:10437C003002030008B5024B1B685B6A019308BD51
:10438C003002030008B5024B1B689B6A019308BD01
:10439C003002030008B5024B1B68DB6A019308BDB1
:1043AC003002030008B5024B1B681B6B019308BD60
:1043BC003002030008B5024B1B689B6B019308BDD0
:1043CC003002030008B5024B1B681B6C019308BD3F
:1043DC003002030008B5024B1B685B6C019308BDEF
:1043EC003002030008B5024B1B681B68019308BD23
:1043FC003C02030008B5024B1B68DB68019308BD47
:10440C003C02030008B5024B1B681B69019308BDF5
:10441C003C02030008B5024B1B685B69019308BDA5
:10442C003C02030008B5024B1B689B69019308BD55
:10443C003C02030008B5024B1B68DB69019308BD05
:10444C003C02030008B5024B1B681B6A019308BDB4
:10445C003C02030008B5024B1B689B6A019308BD24
:10446C003C02030008B5024B1B681B68019308BD96
:10447C004C02030008B5024B1B681B69019308BD75
:10448C004C02030008B5024B1B685B69019308BD25
:10449C004C02030008B5024B1B689B69019308BDD5
:1044AC004C02030008B5024B1B68DB69019308BD85
:1044BC004C02030008B5024B1B681B6A019308BD34
:1044CC004C02030008B5024B1B685B68019308BDE6
:1044DC002002030008B5024B1B68DB6A019308BD80
:1044EC002002030008B5034B1B68D3F888300193F6
:1044FC0008BD00002002030008B5034B1B68D3F86D
:10450C009430019308BD00002002030008B5024B53
:10451C001B68DB6B019308BD4402030008B5024B1A
:10452C001B685B68019308BD4002030008B5024B91
:10453C001B689B68019308BD4002030008B5024B41
:10454C001B68DB68019308BD4002030008B5024BF1
:10455C001B681B69019308BD4002030008B5024BA0
:10456C001B685B69019308BD4002030008B5024B50
:10457C001B689B69019308BD4002030008B5024B00
:10458C001B68DB69019308BD4002030008B5024BB0
:10459C001B681B6A019308BD4002030008B5024B5F
:1045AC001B681B6B019308BD4002030008B5024B4E
:1045BC001B685B6B019308BD4002030008B5024BFE
:1045CC001B681B6C019308BD4002030008B5024B2D
:1045DC001B685B6C019308BD4002030008B5024BDD
:1045EC001B681B68019308BD1C02030008B5024B35
:1045FC001B685B68019308BD1C02030008B5024BE5
:10460C001B685B6C019308BD1C02030010B50446CB
:10461C00006808B1FFF7FEFD204610BD10B5836899
:10462C00044613B1032201469847204610BD0000F2
:10463C0010B5064C002320462360FFF7E3FD20460F
:10464C00034A0449BDE8104000F086BD44E603204F
:10465C0024E6032019460D00002240681146FFF79E
:10466C0095BF002240681146FFF7A0BF40680022AA
:10467C00FFF794BF4068002281F00101FFF77EBF75
:10468C00002340681A461946FFF770BF00234068A4
:10469C001A461946FFF762BF002240681146FFF721
:1046AC0055BF002240681146FFF740BF406800220A
:1046BC000221FFF743BF002340681A46FFF72EBFC5
:1046CC00024B03225A60024A1A60704748E60320E4
:1046DC0034520D007047F8B5064615460C468F1837
:1046EC00BC4206D0336814F8011B9B6830469847CF
:1046FC00F6E72846F8BD007C0022FFF7C3BD007C1E
:10470C000021FFF7C7BD007C0021FFF7CBBD007C6B
:10471C000021FFF7CFBD007C0021FFF7D3BD10B502
:10472C001421044600F01DFD204610BD10B54FF4B9
:10473C007A73044608460021C4E90113034B236035
:10474C0020741146FFF7CEFD204610BD70520D00AF
:10475C00704710B51821044600F003FD204610BD2B
:10476C00F0B5037D062B8DB00E4600F104074FF01B
:10477C00000412D000F1080515F8011D0A2230467C
:10478C0000F045F9AF42044419D0002CF4D02E218E
:10479C00304600F039F90444EEE72F236A463946D7
:1047AC000A208DF80040FFF7A5FD684600F026FDB5
:1047BC0033680246DB686946304698470446204613
:1047CC000DB0F0BD10B5054B0446112240F8043B6A
:1047DC00002100F0E7FC204610BD00BF98520D00F0
:1047EC000346074A10B543F8042B01F1100251F8A7
:1047FC00044B43F8044B9142F9D10A781A7010BD5E
:10480C0098520D0010B59DF8084044EA032343EA82
:10481C00024242EA016104234160037510BD0000AD
:10482C0013B5054B0360CB7800938B784A780978E5
:10483C00FFF7E8FF02B010BD98520D00014B024A81
:10484C001A60704750E60320A4520D000023406804
:10485C001A46FFF763BE406800220221FFF76EBEC6
:10486C00002240681146FFF761BE002240681146E5
:10487C00FFF76CBE002340681A461946FFF76EBE60
:10488C00002340681A461946FFF770BE40680021A5
:10489C00FFF794BE40680021FFF798BE40680022E5
:1048AC0081F00101FFF76ABE40680022FFF776BE77
:1048BC00002240681146FFF779BE0022406811467D
:1048CC00FFF764BE2DE9F043002495B016460D4663
:1048DC000746FFF777FF214618220EA8009400F038
:1048EC0061FC4023CDE90C3421466B460CAA3046C2
:1048FC00FFF710FD044600284CD1024601216868E0
:10490C00FFF724FE0221804622466868FFF71EFE50
:10491C00009E81462146002E3CD000293AD1736876
:10492C00022B03D00A2B11D0F669F4E7B8F1000F73
:10493C000AD0716906A8043107ADFFF771FF0FCDDE
:10494C003C1D0FC42B6823704146EDE7B9F1000FF5
:10495C0001D14946E8E77469102201A800F022FC55
:10496C0006238DF8143001AD04F1080318341868CF
:10497C0059682A4603C20833A3421546F7D101A948
:10498C0006A807ADFFF72CFF0FCD3C1D0FC42B68FD
:10499C002370DEE70098FFF7B5FC384615B0BDE88C
:1049AC00F0830000024B034A1A6000225A607047E1
:1049BC0054E60320B0520D00F8B506460D468F188C
:1049CC000024BD420CD0336815F8011B9B6830469F
:1049DC009847031E01DB1C44F3E7002C08BF1C4660
:1049EC002046F8BD13B50446084659B1019100F0B4
:1049FC0005FC23680199DB680246204602B0BDE83D
:104A0C001040184702B010BD03689B68184730B5BA
:104A1C008BB000238DF82430012A98BF0A2209ACF0
:104A2C000D46B1FBF2F101FB125303F0FF03092B0E
:104A3C0094BF30333733DBB2AA4204F8013DEFD9CF
:104A4C002146FFF7CFFF0BB030BD10B50446FFF782
:104A5C00E5FD204610BD00000348044A044900232C
:104A6C00836000F079BB00BF5CE6032024E60320E2
:104A7C00574A0D000021FFF7A5BC0021FFF7AABC87
:104A8C0010B5044608462170FFF764FC00236360F0
:104A9C00204610BD13B504460078CDE90021FFF780
:104AAC00E9FFDDE90021034640B92078FFF772FCED
:104ABC00207802B0BDE81040FFF7DFBF02B010BD98
:104ACC0013B5044600780191FFF7D4FF019940B962
:104ADC002078FFF727FC207802B0BDE81040FFF7E4
:104AEC00CCBF02B010BD13B5044600780191FFF79E
:104AFC00C1FF019940B92078FFF71CFC207802B067
:104B0C00BDE81040FFF7B9BF02B010BD400830B58A
:104B1C001860002418688842E5B206D90134082CC4
:104B2C0002D040081860F5E70725024B5B5D137057
:104B3C0030BD00BFE4520D002DE9F04188B00023D8
:104B4C000446007802930E461746FFF793FF05467E
:104B5C0000BB94F800800146142203A800F022FB4D
:104B6C000B232A4603A94046ADF80C30FFF702FC94
:104B7C0004988DF8075002AB0DF1070207FB06F104
:104B8C00FFF7C4FF20789DF80710FFF7DBFB2078B8
:104B9C00FFF773FF029808B0BDE8F08130B587B01D
:104BAC0004460A9D00950078FFF7ECFB3DB9207890
:104BBC0002A9FFF7FFFB9DF81430DB07F7D407B011
:104BCC0030BD13B5044600780191FFF753FF0199EE
:104BDC00024640B92078FFF7E5FB207802B0BDE82B
:104BEC001040FFF74ABF02B010BD000010B5094BD2
:104BFC00094C022200201A60084B2060A080A07192
:104C0C00A360FFF75FFC2046054A0649BDE810404B
:104C1C0000F0A2BA78E603206CE603200000FFFF48
:104C2C0024E60320BD400D00024B1A68024B1A60AB
:104C3C00704700BFBCE503207CE60320704741743D
:104C4C00704708B5007CFFF705FC20EAE07008BD52
:104C5C0008B5007CFFF7D6FB20EAE07008BD08B56C
:104C6C00007CFFF7DFFB40EAE07008BD08B5007C74
:104C7C00FFF7D0FB40EAE07008BD007CFFF7DABB21
:104C8C0037B5457C04462DB1207C03B0BDE83040DF
:104C9C00FFF7B0BB007C0191FFF7DCFB002801990A
:104CAC00F2DC284603B030BD10B51421044600F0E8
:104CBC0058FA204610BD000010B54FF0000C044609
:104CCC00084611464FF47A72C4E901C2044A2260C4
:104CDC000122207462741A46FFF784FB204610BD33
:104CEC0010530D0013B50E4C2178BFF35B8F11F0F0
:104CFC00010112D120460191FFF7C9F9019960B168
:104D0C00084A094B0948FFF7D7FF2046FFF7C4F9BB
:104D1C00074A0849054800F01FFA044802B010BDC4
:104D2C0080E6032084E6032008E703208CE70320B9
:104D3C0024E60320494C0D0041747047704708B5B8
:104D4C000021007CFFF7A6FB40EAE07008BD08B527
:104D5C000121007CFFF79EFB40EAE07008BD08B51E
:104D6C00007CFFF78FFB20EAE07008BD08B5007CE3
:104D7C00FFF780FB20EAE07008BD13B50446007C09
:104D8C000191FFF77FFB0028019901DC607C20B1C9
:104D9C00207CFFF787FB20EAE07002B010BD007C9E
:104DAC00FFF788BB10B51421044600F0DAF9204651
:104DBC0010BD000010B54FF47A730446084600216C
:104DCC00C4E90113044B236001232074637411465E
:104DDC00FFF748FB204610BD40530D0010B51422C0
:104DEC000446002100F0DEF9204610BD10B5104C31
:104DFC0088B003A8FFF7F2FF2178BFF35B8F11F0A7
:104E0C00010111D120460191FFF741F9019958B1E7
:104E1C0003AA0848FFF7CEFF2046FFF73DF9064AE4
:104E2C000649044800F098F9024808B010BD00BFCC
:104E3C00A0E70320A4E7032024E60320494D0D003E
:104E4C00002240681146FFF781BB002240681146E2
:104E5C00FFF79CBB002240681146FFF7A7BB4068D8
:104E6C000022FFF79BBB4068002281F00101FFF795
:104E7C0085BB002340681A461946FFF777BB002311
:104E8C0040681A461946FFF769BB00224068114674
:104E9C00FFF74CBB406800220221FFF74FBB0023F9
:104EAC0040681A46FFF73ABB024B04225A60024A8A
:104EBC001A607047B8E7032070530D00014B18605F
:104ECC00704700BFC0E5032008B50B4B43B1FFF79B
:104EDC008DFF03681B699847002801DDAFF3008044
:104EEC00064B43B1FFF7FEFE03681B699847002889
:104EFC0001DDAFF3008008BD0000000000000000E1
:104F0C0008B5FFF7E1FFFFF795F9014B186008BDF5
:104F1C00D4E703200248034A0349121A00F034B9BB
:104F2C0000F4032004F40320D0530D0007B5002334
:104F3C0000931A466FF07701FFF7DEFA03B05DF8C5
:104F4C0004FB000007B543880A2B08D0502B0BD16B
:104F5C00094B1B684BB103B05DF804EB1847FFF726
:104F6C00E5FF03B05DF804FB002300931A466FF0D5
:104F7C007701FFF7C1FAF4E7C4E7032038B5124C08
:104F8C001248134D0021FFF739FB2368AB42114B3C
:104F9C000CBF012200221A7002D0FFF7BBFF256064
:104FAC00FFF740F9044600F005F90B4B13B120460E
:104FBC00AFF3008000210848FFF7A8FABDE838409D
:104FCC0006480021FFF78EBA00F40320C94E0D00ED
:104FDC001E1C279AC0E7032000000000514F0D0053
:104FEC00232813B502D9002002B010BDA0F10B0389
:104FFC00022B1AD8174C2178BFF35B8F11F00101EB
:10500C000BD120460191FFF742F8019928B11248C3
:10501C00FFF736FD2046FFF73FF80F4B1878FFF7E8
:10502C00A1F90028DFD10120DEE7012809D800F022
:10503C006BF80021007CFFF74DF980F00100C0B245
:10504C00D2E709380128EED8FFF74CFE007CFFF7B9
:10505C00F9F9F2E7C8E70320CCE70320232838B599
:10506C0004460D460AD8FF2908D0FFF7B9FF28B12E
:10507C0029462046BDE83840FFF7E4B838BD38B5BE
:10508C0004460D46FFF7E6F8FF2810D0062804D892
:10509C004D2323FA00F0C30709D42046FFF7A0FFE5
:1050AC0028B129462046BDE83840FFF7DBB838BDAB
:1050BC0010B50446FFF7CEF8031FDBB2012B08D95D
:1050CC002046FFF78DFF20B12046BDE81040FFF7CA
:1050DC00D1B8002010BD000038B500232025438036
:1050EC00142304460380856005610649284600F0B8
:1050FC003AF804496060284600F035F8E060204634
:10510C0038BD00BFA4530D0030B50F4D2978BFF347
:10511C005B8F11F0010487B013D12846FEF7B7FF5F
:10512C0078B101A8FFF7D8FF01AA21460748FFF77D
:10513C00FDFA2846FEF7B0FF054A0649034800F081
:10514C000BF8024807B030BDD8E70320DCE703209A
:10515C0024E60320E1460D000B460146184600F0FC
:10516C0005B8FEF792BFFEF78EBF000010B5054CD8
:10517C0013462CB10A4601460220AFF3008010BD45
:10518C002046FCE7000000000A44914200F1FF3386
:10519C0000D1704710B511F8014B03F8014F914243
:1051AC00F9D110BD02440346934200D1704703F875
:1051BC00011BF9E738B50D4B1D68AB6B04467BB989
:1051CC001820FFF70BFA0A4A0A4BA863C0E9002320
:1051DC00094B83600B23838101220023C0E9042344
:1051EC00AB6B00221C615A6138BD00BFC0E50320C7
:1051FC000E33CDAB34126DE6ECDE0500034613F82E
:10520C00012B002AFBD1181A013870471D400D00E4
:10521C0059400D0081400D0085400D00000000003C
:10522C000000000000000000C3460D00B9460D0050
:10523C00AF460D00A5460D0099460D008D460D009C
:10524C0099480D00A1480D0081460D0079460D00CE
:10525C006F460D0065460D00D1480D0000000000A2
:10526C0000000000E1460D002B470D0003470D0028
:10527C00E3460D000B470D0013470D001B470D00B7
:10528C0023470D0000000000000000006D470D00DA
:10529C005D470D005F470D0061707000000000005D
:1052AC000000000059480D0063480D006D480D00CA
:1052BC0077480D0081480D008D480D0099480D0070
:1052CC00A1480D00A9480D00B5480D00BD480D00C2
:1052DC00C7480D00D1480D000008101820283038A0
:1052EC0025592D256D2D25645425483A254D3A25F3
:1052FC0053257A0061736374696D650000000000CA
:10530C0000000000494C0D00B54C0D008D4C0D00FB
:10531C00C5490D005D4C0D00794C0D006B4C0D001A
:10532C00874C0D004B4C0D004F4C0D000000000045
:10533C0000000000494D0D00B14D0D00874D0D00D2
:10534C00C5490D00794D0D004B4D0D005B4D0D0009
:10535C00AB4D0D006B4D0D00454D0D0000000000D8
:10536C0000000000AB4E0D00A14E0D00974E0D003D
:10537C004D4E0D008B4E0D007F4E0D0099480D00CB
:10538C00A1480D00734E0D006B4E0D00614E0D00CB
:10539C00574E0D00D1480D0000000000D5410D0006
:1053AC003D460D00CD460D0049480D00B1490D009C
:1053BC00654A0D00F94B0D00354C0D00B54E0D0036
:0453CC0000000000DD
:0453D00000000000D9
:1053D40000530D00C4E5032000000000000000009D
:1053E40000000000000000000000000000000000B9
:1053F40000000000000000000000000000000000A9
:105404000000000000000000000000000000000098
:105414000000000000000000000000000000000088
:105424000000000000000000000000000000000078
:08543400000000000000000070
:10543C00FFFFFFFF00000102030405060708090A2D
:10544C000B0C0D0E0F101112131415161718191A28
:08545C001B1C1D1E1F2028006F
:045464007856341230
:04000003D000401CCD
:00000001FF
